{
  "_format": "hh-sol-artifact-1",
  "contractName": "ERC20_smart_contract",
  "sourceName": "contracts/AITU_SE-2314-16Token.sol",
  "abi": [
    {
      "inputs": [
        {
          "internalType": "uint256",
          "name": "initialSupply",
          "type": "uint256"
        }
      ],
      "stateMutability": "nonpayable",
      "type": "constructor"
    },
    {
      "inputs": [
        {
          "internalType": "address",
          "name": "spender",
          "type": "address"
        },
        {
          "internalType": "uint256",
          "name": "allowance",
          "type": "uint256"
        },
        {
          "internalType": "uint256",
          "name": "needed",
          "type": "uint256"
        }
      ],
      "name": "ERC20InsufficientAllowance",
      "type": "error"
    },
    {
      "inputs": [
        {
          "internalType": "address",
          "name": "sender",
          "type": "address"
        },
        {
          "internalType": "uint256",
          "name": "balance",
          "type": "uint256"
        },
        {
          "internalType": "uint256",
          "name": "needed",
          "type": "uint256"
        }
      ],
      "name": "ERC20InsufficientBalance",
      "type": "error"
    },
    {
      "inputs": [
        {
          "internalType": "address",
          "name": "approver",
          "type": "address"
        }
      ],
      "name": "ERC20InvalidApprover",
      "type": "error"
    },
    {
      "inputs": [
        {
          "internalType": "address",
          "name": "receiver",
          "type": "address"
        }
      ],
      "name": "ERC20InvalidReceiver",
      "type": "error"
    },
    {
      "inputs": [
        {
          "internalType": "address",
          "name": "sender",
          "type": "address"
        }
      ],
      "name": "ERC20InvalidSender",
      "type": "error"
    },
    {
      "inputs": [
        {
          "internalType": "address",
          "name": "spender",
          "type": "address"
        }
      ],
      "name": "ERC20InvalidSpender",
      "type": "error"
    },
    {
      "anonymous": false,
      "inputs": [
        {
          "indexed": true,
          "internalType": "address",
          "name": "owner",
          "type": "address"
        },
        {
          "indexed": true,
          "internalType": "address",
          "name": "spender",
          "type": "address"
        },
        {
          "indexed": false,
          "internalType": "uint256",
          "name": "value",
          "type": "uint256"
        }
      ],
      "name": "Approval",
      "type": "event"
    },
    {
      "anonymous": false,
      "inputs": [
        {
          "indexed": true,
          "internalType": "address",
          "name": "sender",
          "type": "address"
        },
        {
          "indexed": true,
          "internalType": "address",
          "name": "receiver",
          "type": "address"
        },
        {
          "indexed": false,
          "internalType": "uint256",
          "name": "timestamp",
          "type": "uint256"
        }
      ],
      "name": "TransactionTracked",
      "type": "event"
    },
    {
      "anonymous": false,
      "inputs": [
        {
          "indexed": true,
          "internalType": "address",
          "name": "from",
          "type": "address"
        },
        {
          "indexed": true,
          "internalType": "address",
          "name": "to",
          "type": "address"
        },
        {
          "indexed": false,
          "internalType": "uint256",
          "name": "value",
          "type": "uint256"
        }
      ],
      "name": "Transfer",
      "type": "event"
    },
    {
      "inputs": [
        {
          "internalType": "address",
          "name": "owner",
          "type": "address"
        },
        {
          "internalType": "address",
          "name": "spender",
          "type": "address"
        }
      ],
      "name": "allowance",
      "outputs": [
        {
          "internalType": "uint256",
          "name": "",
          "type": "uint256"
        }
      ],
      "stateMutability": "view",
      "type": "function"
    },
    {
      "inputs": [
        {
          "internalType": "address",
          "name": "spender",
          "type": "address"
        },
        {
          "internalType": "uint256",
          "name": "value",
          "type": "uint256"
        }
      ],
      "name": "approve",
      "outputs": [
        {
          "internalType": "bool",
          "name": "",
          "type": "bool"
        }
      ],
      "stateMutability": "nonpayable",
      "type": "function"
    },
    {
      "inputs": [
        {
          "internalType": "address",
          "name": "account",
          "type": "address"
        }
      ],
      "name": "balanceOf",
      "outputs": [
        {
          "internalType": "uint256",
          "name": "",
          "type": "uint256"
        }
      ],
      "stateMutability": "view",
      "type": "function"
    },
    {
      "inputs": [],
      "name": "decimals",
      "outputs": [
        {
          "internalType": "uint8",
          "name": "",
          "type": "uint8"
        }
      ],
      "stateMutability": "view",
      "type": "function"
    },
    {
      "inputs": [],
      "name": "getLastReceiverAddress",
      "outputs": [
        {
          "internalType": "address",
          "name": "",
          "type": "address"
        }
      ],
      "stateMutability": "view",
      "type": "function"
    },
    {
      "inputs": [],
      "name": "getLastSenderAddress",
      "outputs": [
        {
          "internalType": "address",
          "name": "",
          "type": "address"
        }
      ],
      "stateMutability": "view",
      "type": "function"
    },
    {
      "inputs": [],
      "name": "getLastTransactionTimestamp",
      "outputs": [
        {
          "internalType": "uint256",
          "name": "",
          "type": "uint256"
        }
      ],
      "stateMutability": "view",
      "type": "function"
    },
    {
      "inputs": [],
      "name": "lastReceiver",
      "outputs": [
        {
          "internalType": "address",
          "name": "",
          "type": "address"
        }
      ],
      "stateMutability": "view",
      "type": "function"
    },
    {
      "inputs": [],
      "name": "lastSender",
      "outputs": [
        {
          "internalType": "address",
          "name": "",
          "type": "address"
        }
      ],
      "stateMutability": "view",
      "type": "function"
    },
    {
      "inputs": [],
      "name": "lastTimestamp",
      "outputs": [
        {
          "internalType": "uint256",
          "name": "",
          "type": "uint256"
        }
      ],
      "stateMutability": "view",
      "type": "function"
    },
    {
      "inputs": [],
      "name": "name",
      "outputs": [
        {
          "internalType": "string",
          "name": "",
          "type": "string"
        }
      ],
      "stateMutability": "view",
      "type": "function"
    },
    {
      "inputs": [],
      "name": "symbol",
      "outputs": [
        {
          "internalType": "string",
          "name": "",
          "type": "string"
        }
      ],
      "stateMutability": "view",
      "type": "function"
    },
    {
      "inputs": [],
      "name": "totalSupply",
      "outputs": [
        {
          "internalType": "uint256",
          "name": "",
          "type": "uint256"
        }
      ],
      "stateMutability": "view",
      "type": "function"
    },
    {
      "inputs": [
        {
          "internalType": "address",
          "name": "recipient",
          "type": "address"
        },
        {
          "internalType": "uint256",
          "name": "amount",
          "type": "uint256"
        }
      ],
      "name": "transfer",
      "outputs": [
        {
          "internalType": "bool",
          "name": "",
          "type": "bool"
        }
      ],
      "stateMutability": "nonpayable",
      "type": "function"
    },
    {
      "inputs": [
        {
          "internalType": "address",
          "name": "from",
          "type": "address"
        },
        {
          "internalType": "address",
          "name": "to",
          "type": "address"
        },
        {
          "internalType": "uint256",
          "name": "value",
          "type": "uint256"
        }
      ],
      "name": "transferFrom",
      "outputs": [
        {
          "internalType": "bool",
          "name": "",
          "type": "bool"
        }
      ],
      "stateMutability": "nonpayable",
      "type": "function"
    }
  ],
  "bytecode": "0x60806040523480156200001157600080fd5b5060405162001c0b38038062001c0b833981810160405281019062000037919062000412565b6040518060400160405280601481526020017f414954555f53452d323331342d3136546f6b656e0000000000000000000000008152506040518060400160405280600381526020017f54414400000000000000000000000000000000000000000000000000000000008152508160039081620000b49190620006b4565b508060049081620000c69190620006b4565b5050506200010533620000de6200010c60201b60201c565b600a620000ec91906200092b565b83620000f991906200097c565b6200011560201b60201c565b5062000acf565b60006012905090565b600073ffffffffffffffffffffffffffffffffffffffff168273ffffffffffffffffffffffffffffffffffffffff16036200018a5760006040517fec442f0500000000000000000000000000000000000000000000000000000000815260040162000181919062000a0c565b60405180910390fd5b6200019e60008383620001a260201b60201c565b5050565b600073ffffffffffffffffffffffffffffffffffffffff168373ffffffffffffffffffffffffffffffffffffffff1603620001f8578060026000828254620001eb919062000a29565b92505081905550620002ce565b60008060008573ffffffffffffffffffffffffffffffffffffffff1673ffffffffffffffffffffffffffffffffffffffff1681526020019081526020016000205490508181101562000287578381836040517fe450d38c0000000000000000000000000000000000000000000000000000000081526004016200027e9392919062000a75565b60405180910390fd5b8181036000808673ffffffffffffffffffffffffffffffffffffffff1673ffffffffffffffffffffffffffffffffffffffff16815260200190815260200160002081905550505b600073ffffffffffffffffffffffffffffffffffffffff168273ffffffffffffffffffffffffffffffffffffffff160362000319578060026000828254039250508190555062000366565b806000808473ffffffffffffffffffffffffffffffffffffffff1673ffffffffffffffffffffffffffffffffffffffff168152602001908152602001600020600082825401925050819055505b8173ffffffffffffffffffffffffffffffffffffffff168373ffffffffffffffffffffffffffffffffffffffff167fddf252ad1be2c89b69c2b068fc378daa952ba7f163c4a11628f55a4df523b3ef83604051620003c5919062000ab2565b60405180910390a3505050565b600080fd5b6000819050919050565b620003ec81620003d7565b8114620003f857600080fd5b50565b6000815190506200040c81620003e1565b92915050565b6000602082840312156200042b576200042a620003d2565b5b60006200043b84828501620003fb565b91505092915050565b600081519050919050565b7f4e487b7100000000000000000000000000000000000000000000000000000000600052604160045260246000fd5b7f4e487b7100000000000000000000000000000000000000000000000000000000600052602260045260246000fd5b60006002820490506001821680620004c657607f821691505b602082108103620004dc57620004db6200047e565b5b50919050565b60008190508160005260206000209050919050565b60006020601f8301049050919050565b600082821b905092915050565b600060088302620005467fffffffffffffffffffffffffffffffffffffffffffffffffffffffffffffffff8262000507565b62000552868362000507565b95508019841693508086168417925050509392505050565b6000819050919050565b6000620005956200058f6200058984620003d7565b6200056a565b620003d7565b9050919050565b6000819050919050565b620005b18362000574565b620005c9620005c0826200059c565b84845462000514565b825550505050565b600090565b620005e0620005d1565b620005ed818484620005a6565b505050565b5b81811015620006155762000609600082620005d6565b600181019050620005f3565b5050565b601f82111562000664576200062e81620004e2565b6200063984620004f7565b8101602085101562000649578190505b620006616200065885620004f7565b830182620005f2565b50505b505050565b600082821c905092915050565b6000620006896000198460080262000669565b1980831691505092915050565b6000620006a4838362000676565b9150826002028217905092915050565b620006bf8262000444565b67ffffffffffffffff811115620006db57620006da6200044f565b5b620006e78254620004ad565b620006f482828562000619565b600060209050601f8311600181146200072c576000841562000717578287015190505b62000723858262000696565b86555062000793565b601f1984166200073c86620004e2565b60005b8281101562000766578489015182556001820191506020850194506020810190506200073f565b8683101562000786578489015162000782601f89168262000676565b8355505b6001600288020188555050505b505050505050565b7f4e487b7100000000000000000000000000000000000000000000000000000000600052601160045260246000fd5b60008160011c9050919050565b6000808291508390505b600185111562000829578086048111156200080157620008006200079b565b5b6001851615620008115780820291505b80810290506200082185620007ca565b9450620007e1565b94509492505050565b60008262000844576001905062000917565b8162000854576000905062000917565b81600181146200086d57600281146200087857620008ae565b600191505062000917565b60ff8411156200088d576200088c6200079b565b5b8360020a915084821115620008a757620008a66200079b565b5b5062000917565b5060208310610133831016604e8410600b8410161715620008e85782820a905083811115620008e257620008e16200079b565b5b62000917565b620008f78484846001620007d7565b925090508184048111156200091157620009106200079b565b5b81810290505b9392505050565b600060ff82169050919050565b60006200093882620003d7565b915062000945836200091e565b9250620009747fffffffffffffffffffffffffffffffffffffffffffffffffffffffffffffffff848462000832565b905092915050565b60006200098982620003d7565b91506200099683620003d7565b9250828202620009a681620003d7565b91508282048414831517620009c057620009bf6200079b565b5b5092915050565b600073ffffffffffffffffffffffffffffffffffffffff82169050919050565b6000620009f482620009c7565b9050919050565b62000a0681620009e7565b82525050565b600060208201905062000a236000830184620009fb565b92915050565b600062000a3682620003d7565b915062000a4383620003d7565b925082820190508082111562000a5e5762000a5d6200079b565b5b92915050565b62000a6f81620003d7565b82525050565b600060608201905062000a8c6000830186620009fb565b62000a9b602083018562000a64565b62000aaa604083018462000a64565b949350505050565b600060208201905062000ac9600083018462000a64565b92915050565b61112c8062000adf6000396000f3fe608060405234801561001057600080fd5b50600436106100f55760003560e01c806341a3722411610097578063a9059cbb11610066578063a9059cbb1461027a578063dd62ed3e146102aa578063f8ea8ed0146102da578063f9963890146102f8576100f5565b806341a37224146101f057806370a082311461020e57806395d89b411461023e5780639b68767a1461025c576100f5565b806319d8ac61116100d357806319d8ac611461016657806323b872dd14610184578063256fec88146101b4578063313ce567146101d2576100f5565b806306fdde03146100fa578063095ea7b31461011857806318160ddd14610148575b600080fd5b610102610316565b60405161010f9190610d80565b60405180910390f35b610132600480360381019061012d9190610e3b565b6103a8565b60405161013f9190610e96565b60405180910390f35b6101506103cb565b60405161015d9190610ec0565b60405180910390f35b61016e6103d5565b60405161017b9190610ec0565b60405180910390f35b61019e60048036038101906101999190610edb565b6103db565b6040516101ab9190610e96565b60405180910390f35b6101bc61040a565b6040516101c99190610f3d565b60405180910390f35b6101da610430565b6040516101e79190610f74565b60405180910390f35b6101f8610439565b6040516102059190610ec0565b60405180910390f35b61022860048036038101906102239190610f8f565b610443565b6040516102359190610ec0565b60405180910390f35b61024661048b565b6040516102539190610d80565b60405180910390f35b61026461051d565b6040516102719190610f3d565b60405180910390f35b610294600480360381019061028f9190610e3b565b610547565b6040516102a19190610e96565b60405180910390f35b6102c460048036038101906102bf9190610fbc565b610657565b6040516102d19190610ec0565b60405180910390f35b6102e26106de565b6040516102ef9190610f3d565b60405180910390f35b610300610704565b60405161030d9190610f3d565b60405180910390f35b6060600380546103259061102b565b80601f01602080910402602001604051908101604052809291908181526020018280546103519061102b565b801561039e5780601f106103735761010080835404028352916020019161039e565b820191906000526020600020905b81548152906001019060200180831161038157829003601f168201915b5050505050905090565b6000806103b361072e565b90506103c0818585610736565b600191505092915050565b6000600254905090565b60075481565b6000806103e661072e565b90506103f3858285610748565b6103fe8585856107dd565b60019150509392505050565b600560009054906101000a900473ffffffffffffffffffffffffffffffffffffffff1681565b60006012905090565b6000600754905090565b60008060008373ffffffffffffffffffffffffffffffffffffffff1673ffffffffffffffffffffffffffffffffffffffff168152602001908152602001600020549050919050565b60606004805461049a9061102b565b80601f01602080910402602001604051908101604052809291908181526020018280546104c69061102b565b80156105135780601f106104e857610100808354040283529160200191610513565b820191906000526020600020905b8154815290600101906020018083116104f657829003601f168201915b5050505050905090565b6000600560009054906101000a900473ffffffffffffffffffffffffffffffffffffffff16905090565b60008061055484846108d1565b9050801561064d5733600560006101000a81548173ffffffffffffffffffffffffffffffffffffffff021916908373ffffffffffffffffffffffffffffffffffffffff16021790555083600660006101000a81548173ffffffffffffffffffffffffffffffffffffffff021916908373ffffffffffffffffffffffffffffffffffffffff160217905550426007819055508373ffffffffffffffffffffffffffffffffffffffff163373ffffffffffffffffffffffffffffffffffffffff167f0ec8d7e9829893dfc2860d52950a36df010a567c41359d5075c1bae465d5802c6007546040516106449190610ec0565b60405180910390a35b8091505092915050565b6000600160008473ffffffffffffffffffffffffffffffffffffffff1673ffffffffffffffffffffffffffffffffffffffff16815260200190815260200160002060008373ffffffffffffffffffffffffffffffffffffffff1673ffffffffffffffffffffffffffffffffffffffff16815260200190815260200160002054905092915050565b600660009054906101000a900473ffffffffffffffffffffffffffffffffffffffff1681565b6000600660009054906101000a900473ffffffffffffffffffffffffffffffffffffffff16905090565b600033905090565b61074383838360016108f4565b505050565b60006107548484610657565b90507fffffffffffffffffffffffffffffffffffffffffffffffffffffffffffffffff8110156107d757818110156107c7578281836040517ffb8f41b20000000000000000000000000000000000000000000000000000000081526004016107be9392919061105c565b60405180910390fd5b6107d6848484840360006108f4565b5b50505050565b600073ffffffffffffffffffffffffffffffffffffffff168373ffffffffffffffffffffffffffffffffffffffff160361084f5760006040517f96c6fd1e0000000000000000000000000000000000000000000000000000000081526004016108469190610f3d565b60405180910390fd5b600073ffffffffffffffffffffffffffffffffffffffff168273ffffffffffffffffffffffffffffffffffffffff16036108c15760006040517fec442f050000000000000000000000000000000000000000000000000000000081526004016108b89190610f3d565b60405180910390fd5b6108cc838383610acb565b505050565b6000806108dc61072e565b90506108e98185856107dd565b600191505092915050565b600073ffffffffffffffffffffffffffffffffffffffff168473ffffffffffffffffffffffffffffffffffffffff16036109665760006040517fe602df0500000000000000000000000000000000000000000000000000000000815260040161095d9190610f3d565b60405180910390fd5b600073ffffffffffffffffffffffffffffffffffffffff168373ffffffffffffffffffffffffffffffffffffffff16036109d85760006040517f94280d620000000000000000000000000000000000000000000000000000000081526004016109cf9190610f3d565b60405180910390fd5b81600160008673ffffffffffffffffffffffffffffffffffffffff1673ffffffffffffffffffffffffffffffffffffffff16815260200190815260200160002060008573ffffffffffffffffffffffffffffffffffffffff1673ffffffffffffffffffffffffffffffffffffffff168152602001908152602001600020819055508015610ac5578273ffffffffffffffffffffffffffffffffffffffff168473ffffffffffffffffffffffffffffffffffffffff167f8c5be1e5ebec7d5bd14f71427d1e84f3dd0314c0f7b2291e5b200ac8c7c3b92584604051610abc9190610ec0565b60405180910390a35b50505050565b600073ffffffffffffffffffffffffffffffffffffffff168373ffffffffffffffffffffffffffffffffffffffff1603610b1d578060026000828254610b1191906110c2565b92505081905550610bf0565b60008060008573ffffffffffffffffffffffffffffffffffffffff1673ffffffffffffffffffffffffffffffffffffffff16815260200190815260200160002054905081811015610ba9578381836040517fe450d38c000000000000000000000000000000000000000000000000000000008152600401610ba09392919061105c565b60405180910390fd5b8181036000808673ffffffffffffffffffffffffffffffffffffffff1673ffffffffffffffffffffffffffffffffffffffff16815260200190815260200160002081905550505b600073ffffffffffffffffffffffffffffffffffffffff168273ffffffffffffffffffffffffffffffffffffffff1603610c395780600260008282540392505081905550610c86565b806000808473ffffffffffffffffffffffffffffffffffffffff1673ffffffffffffffffffffffffffffffffffffffff168152602001908152602001600020600082825401925050819055505b8173ffffffffffffffffffffffffffffffffffffffff168373ffffffffffffffffffffffffffffffffffffffff167fddf252ad1be2c89b69c2b068fc378daa952ba7f163c4a11628f55a4df523b3ef83604051610ce39190610ec0565b60405180910390a3505050565b600081519050919050565b600082825260208201905092915050565b60005b83811015610d2a578082015181840152602081019050610d0f565b60008484015250505050565b6000601f19601f8301169050919050565b6000610d5282610cf0565b610d5c8185610cfb565b9350610d6c818560208601610d0c565b610d7581610d36565b840191505092915050565b60006020820190508181036000830152610d9a8184610d47565b905092915050565b600080fd5b600073ffffffffffffffffffffffffffffffffffffffff82169050919050565b6000610dd282610da7565b9050919050565b610de281610dc7565b8114610ded57600080fd5b50565b600081359050610dff81610dd9565b92915050565b6000819050919050565b610e1881610e05565b8114610e2357600080fd5b50565b600081359050610e3581610e0f565b92915050565b60008060408385031215610e5257610e51610da2565b5b6000610e6085828601610df0565b9250506020610e7185828601610e26565b9150509250929050565b60008115159050919050565b610e9081610e7b565b82525050565b6000602082019050610eab6000830184610e87565b92915050565b610eba81610e05565b82525050565b6000602082019050610ed56000830184610eb1565b92915050565b600080600060608486031215610ef457610ef3610da2565b5b6000610f0286828701610df0565b9350506020610f1386828701610df0565b9250506040610f2486828701610e26565b9150509250925092565b610f3781610dc7565b82525050565b6000602082019050610f526000830184610f2e565b92915050565b600060ff82169050919050565b610f6e81610f58565b82525050565b6000602082019050610f896000830184610f65565b92915050565b600060208284031215610fa557610fa4610da2565b5b6000610fb384828501610df0565b91505092915050565b60008060408385031215610fd357610fd2610da2565b5b6000610fe185828601610df0565b9250506020610ff285828601610df0565b9150509250929050565b7f4e487b7100000000000000000000000000000000000000000000000000000000600052602260045260246000fd5b6000600282049050600182168061104357607f821691505b60208210810361105657611055610ffc565b5b50919050565b60006060820190506110716000830186610f2e565b61107e6020830185610eb1565b61108b6040830184610eb1565b949350505050565b7f4e487b7100000000000000000000000000000000000000000000000000000000600052601160045260246000fd5b60006110cd82610e05565b91506110d883610e05565b92508282019050808211156110f0576110ef611093565b5b9291505056fea26469706673582212203256f6ba937158243caf816bdffad1794f68522a67a414fe792aec7fa54c7e7364736f6c63430008140033",
  "linkReferences": {},
  "deployedLinkReferences": {}
}